{"smart-contracts/contracts/ZKValidator.sol":{"ZKValidator":{"abi":[{"anonymous":false,"inputs":[{"indexed":true,"internalType":"address","name":"agent","type":"address"},{"indexed":false,"internalType":"bool","name":"success","type":"bool"},{"indexed":false,"internalType":"string","name":"details","type":"string"}],"name":"ProofValidated","type":"event"},{"inputs":[{"internalType":"bytes","name":"","type":"bytes"}],"name":"validateProof","outputs":[{"internalType":"bool","name":"","type":"bool"}],"stateMutability":"nonpayable","type":"function"}],"evm":{"bytecode":{"linkReferences":{},"object":"608060405234801561001057600080fd5b50610272806100206000396000f3fe608060405234801561001057600080fd5b506004361061002b5760003560e01c8063e3c3335d14610030575b600080fd5b61004a6004803603810190610045919061012e565b610060565b6040516100579190610196565b60405180910390f35b600080600190503373ffffffffffffffffffffffffffffffffffffffff167f801b972f81bfc45dab97466d09b566506ef946777262dcf638d03b54a9a44b9e826040516100ad919061020e565b60405180910390a28091505092915050565b600080fd5b600080fd5b600080fd5b600080fd5b600080fd5b60008083601f8401126100ee576100ed6100c9565b5b8235905067ffffffffffffffff81111561010b5761010a6100ce565b5b602083019150836001820283011115610127576101266100d3565b5b9250929050565b60008060208385031215610145576101446100bf565b5b600083013567ffffffffffffffff811115610163576101626100c4565b5b61016f858286016100d8565b92509250509250929050565b60008115159050919050565b6101908161017b565b82525050565b60006020820190506101ab6000830184610187565b92915050565b600082825260208201905092915050565b7f5a4b2070726f6f6620737475622076616c696461746564000000000000000000600082015250565b60006101f86017836101b1565b9150610203826101c2565b602082019050919050565b60006040820190506102236000830184610187565b8181036020830152610234816101eb565b90509291505056fea2646970667358221220e1e965d73ce66b729ad0b6f21b5af1a610a4a3e356e949dff03e5ef06f2307cd64736f6c63430008140033","opcodes":"PUSH1 0x80 PUSH1 0x40 MSTORE CALLVALUE DUP1 ISZERO PUSH2 0x10 JUMPI PUSH1 0x0 DUP1 REVERT JUMPDEST POP PUSH2 0x272 DUP1 PUSH2 0x20 PUSH1 0x0 CODECOPY PUSH1 0x0 RETURN INVALID PUSH1 0x80 PUSH1 0x40 MSTORE CALLVALUE DUP1 ISZERO PUSH2 0x10 JUMPI PUSH1 0x0 DUP1 REVERT JUMPDEST POP PUSH1 0x4 CALLDATASIZE LT PUSH2 0x2B JUMPI PUSH1 0x0 CALLDATALOAD PUSH1 0xE0 SHR DUP1 PUSH4 0xE3C3335D EQ PUSH2 0x30 JUMPI JUMPDEST PUSH1 0x0 DUP1 REVERT JUMPDEST PUSH2 0x4A PUSH1 0x4 DUP1 CALLDATASIZE SUB DUP2 ADD SWAP1 PUSH2 0x45 SWAP2 SWAP1 PUSH2 0x12E JUMP JUMPDEST PUSH2 0x60 JUMP JUMPDEST PUSH1 0x40 MLOAD PUSH2 0x57 SWAP2 SWAP1 PUSH2 0x196 JUMP JUMPDEST PUSH1 0x40 MLOAD DUP1 SWAP2 SUB SWAP1 RETURN JUMPDEST PUSH1 0x0 DUP1 PUSH1 0x1 SWAP1 POP CALLER PUSH20 0xFFFFFFFFFFFFFFFFFFFFFFFFFFFFFFFFFFFFFFFF AND PUSH32 0x801B972F81BFC45DAB97466D09B566506EF946777262DCF638D03B54A9A44B9E DUP3 PUSH1 0x40 MLOAD PUSH2 0xAD SWAP2 SWAP1 PUSH2 0x20E JUMP JUMPDEST PUSH1 0x40 MLOAD DUP1 SWAP2 SUB SWAP1 LOG2 DUP1 SWAP2 POP POP SWAP3 SWAP2 POP POP JUMP JUMPDEST PUSH1 0x0 DUP1 REVERT JUMPDEST PUSH1 0x0 DUP1 REVERT JUMPDEST PUSH1 0x0 DUP1 REVERT JUMPDEST PUSH1 0x0 DUP1 REVERT JUMPDEST PUSH1 0x0 DUP1 REVERT JUMPDEST PUSH1 0x0 DUP1 DUP4 PUSH1 0x1F DUP5 ADD SLT PUSH2 0xEE JUMPI PUSH2 0xED PUSH2 0xC9 JUMP JUMPDEST JUMPDEST DUP3 CALLDATALOAD SWAP1 POP PUSH8 0xFFFFFFFFFFFFFFFF DUP2 GT ISZERO PUSH2 0x10B JUMPI PUSH2 0x10A PUSH2 0xCE JUMP JUMPDEST JUMPDEST PUSH1 0x20 DUP4 ADD SWAP2 POP DUP4 PUSH1 0x1 DUP3 MUL DUP4 ADD GT ISZERO PUSH2 0x127 JUMPI PUSH2 0x126 PUSH2 0xD3 JUMP JUMPDEST JUMPDEST SWAP3 POP SWAP3 SWAP1 POP JUMP JUMPDEST PUSH1 0x0 DUP1 PUSH1 0x20 DUP4 DUP6 SUB SLT ISZERO PUSH2 0x145 JUMPI PUSH2 0x144 PUSH2 0xBF JUMP JUMPDEST JUMPDEST PUSH1 0x0 DUP4 ADD CALLDATALOAD PUSH8 0xFFFFFFFFFFFFFFFF DUP2 GT ISZERO PUSH2 0x163 JUMPI PUSH2 0x162 PUSH2 0xC4 JUMP JUMPDEST JUMPDEST PUSH2 0x16F DUP6 DUP3 DUP7 ADD PUSH2 0xD8 JUMP JUMPDEST SWAP3 POP SWAP3 POP POP SWAP3 POP SWAP3 SWAP1 POP JUMP JUMPDEST PUSH1 0x0 DUP2 ISZERO ISZERO SWAP1 POP SWAP2 SWAP1 POP JUMP JUMPDEST PUSH2 0x190 DUP2 PUSH2 0x17B JUMP JUMPDEST DUP3 MSTORE POP POP JUMP JUMPDEST PUSH1 0x0 PUSH1 0x20 DUP3 ADD SWAP1 POP PUSH2 0x1AB PUSH1 0x0 DUP4 ADD DUP5 PUSH2 0x187 JUMP JUMPDEST SWAP3 SWAP2 POP POP JUMP JUMPDEST PUSH1 0x0 DUP3 DUP3 MSTORE PUSH1 0x20 DUP3 ADD SWAP1 POP SWAP3 SWAP2 POP POP JUMP JUMPDEST PUSH32 0x5A4B2070726F6F6620737475622076616C696461746564000000000000000000 PUSH1 0x0 DUP3 ADD MSTORE POP JUMP JUMPDEST PUSH1 0x0 PUSH2 0x1F8 PUSH1 0x17 DUP4 PUSH2 0x1B1 JUMP JUMPDEST SWAP2 POP PUSH2 0x203 DUP3 PUSH2 0x1C2 JUMP JUMPDEST PUSH1 0x20 DUP3 ADD SWAP1 POP SWAP2 SWAP1 POP JUMP JUMPDEST PUSH1 0x0 PUSH1 0x40 DUP3 ADD SWAP1 POP PUSH2 0x223 PUSH1 0x0 DUP4 ADD DUP5 PUSH2 0x187 JUMP JUMPDEST DUP2 DUP2 SUB PUSH1 0x20 DUP4 ADD MSTORE PUSH2 0x234 DUP2 PUSH2 0x1EB JUMP JUMPDEST SWAP1 POP SWAP3 SWAP2 POP POP JUMP INVALID LOG2 PUSH5 0x6970667358 0x22 SLT KECCAK256 0xE1 0xE9 PUSH6 0xD73CE66B729A 0xD0 0xB6 CALLCODE SHL GAS CALL 0xA6 LT LOG4 LOG3 0xE3 JUMP 0xE9 0x49 0xDF CREATE RETURNDATACOPY 0x5E CREATE PUSH16 0x2307CD64736F6C634300081400330000 "},"methodIdentifiers":{"validateProof(bytes)":"e3c3335d"}}}}}