{"smart-contracts/contracts/GraphSync.sol":{"GraphSync":{"abi":[{"anonymous":false,"inputs":[{"indexed":false,"internalType":"string","name":"subject","type":"string"},{"indexed":false,"internalType":"string","name":"predicate","type":"string"},{"indexed":false,"internalType":"string","name":"obj","type":"string"}],"name":"LogRDF","type":"event"},{"inputs":[{"internalType":"string","name":"subject","type":"string"},{"internalType":"string","name":"predicate","type":"string"},{"internalType":"string","name":"obj","type":"string"}],"name":"recordRDF","outputs":[],"stateMutability":"nonpayable","type":"function"}],"evm":{"bytecode":{"linkReferences":{},"object":"608060405234801561001057600080fd5b5061029e806100206000396000f3fe608060405234801561001057600080fd5b506004361061002b5760003560e01c80632989522414610030575b600080fd5b61004a60048036038101906100459190610104565b61004c565b005b7fa0b2c614d8f6526f4d977ecf5bce9d351e822c0c894d3eebaa4256af4410b06a86868686868660405161008596959493929190610216565b60405180910390a1505050505050565b600080fd5b600080fd5b600080fd5b600080fd5b600080fd5b60008083601f8401126100c4576100c361009f565b5b8235905067ffffffffffffffff8111156100e1576100e06100a4565b5b6020830191508360018202830111156100fd576100fc6100a9565b5b9250929050565b6000806000806000806060878903121561012157610120610095565b5b600087013567ffffffffffffffff81111561013f5761013e61009a565b5b61014b89828a016100ae565b9650965050602087013567ffffffffffffffff81111561016e5761016d61009a565b5b61017a89828a016100ae565b9450945050604087013567ffffffffffffffff81111561019d5761019c61009a565b5b6101a989828a016100ae565b92509250509295509295509295565b600082825260208201905092915050565b82818337600083830152505050565b6000601f19601f8301169050919050565b60006101f583856101b8565b93506102028385846101c9565b61020b836101d8565b840190509392505050565b6000606082019050818103600083015261023181888a6101e9565b905081810360208301526102468186886101e9565b9050818103604083015261025b8184866101e9565b905097965050505050505056fea264697066735822122081cc6be4e073ba54966840c9bd4d0f43051fcaa627218518f20e0a1820bf63aa64736f6c63430008140033","opcodes":"PUSH1 0x80 PUSH1 0x40 MSTORE CALLVALUE DUP1 ISZERO PUSH2 0x10 JUMPI PUSH1 0x0 DUP1 REVERT JUMPDEST POP PUSH2 0x29E DUP1 PUSH2 0x20 PUSH1 0x0 CODECOPY PUSH1 0x0 RETURN INVALID PUSH1 0x80 PUSH1 0x40 MSTORE CALLVALUE DUP1 ISZERO PUSH2 0x10 JUMPI PUSH1 0x0 DUP1 REVERT JUMPDEST POP PUSH1 0x4 CALLDATASIZE LT PUSH2 0x2B JUMPI PUSH1 0x0 CALLDATALOAD PUSH1 0xE0 SHR DUP1 PUSH4 0x29895224 EQ PUSH2 0x30 JUMPI JUMPDEST PUSH1 0x0 DUP1 REVERT JUMPDEST PUSH2 0x4A PUSH1 0x4 DUP1 CALLDATASIZE SUB DUP2 ADD SWAP1 PUSH2 0x45 SWAP2 SWAP1 PUSH2 0x104 JUMP JUMPDEST PUSH2 0x4C JUMP JUMPDEST STOP JUMPDEST PUSH32 0xA0B2C614D8F6526F4D977ECF5BCE9D351E822C0C894D3EEBAA4256AF4410B06A DUP7 DUP7 DUP7 DUP7 DUP7 DUP7 PUSH1 0x40 MLOAD PUSH2 0x85 SWAP7 SWAP6 SWAP5 SWAP4 SWAP3 SWAP2 SWAP1 PUSH2 0x216 JUMP JUMPDEST PUSH1 0x40 MLOAD DUP1 SWAP2 SUB SWAP1 LOG1 POP POP POP POP POP POP JUMP JUMPDEST PUSH1 0x0 DUP1 REVERT JUMPDEST PUSH1 0x0 DUP1 REVERT JUMPDEST PUSH1 0x0 DUP1 REVERT JUMPDEST PUSH1 0x0 DUP1 REVERT JUMPDEST PUSH1 0x0 DUP1 REVERT JUMPDEST PUSH1 0x0 DUP1 DUP4 PUSH1 0x1F DUP5 ADD SLT PUSH2 0xC4 JUMPI PUSH2 0xC3 PUSH2 0x9F JUMP JUMPDEST JUMPDEST DUP3 CALLDATALOAD SWAP1 POP PUSH8 0xFFFFFFFFFFFFFFFF DUP2 GT ISZERO PUSH2 0xE1 JUMPI PUSH2 0xE0 PUSH2 0xA4 JUMP JUMPDEST JUMPDEST PUSH1 0x20 DUP4 ADD SWAP2 POP DUP4 PUSH1 0x1 DUP3 MUL DUP4 ADD GT ISZERO PUSH2 0xFD JUMPI PUSH2 0xFC PUSH2 0xA9 JUMP JUMPDEST JUMPDEST SWAP3 POP SWAP3 SWAP1 POP JUMP JUMPDEST PUSH1 0x0 DUP1 PUSH1 0x0 DUP1 PUSH1 0x0 DUP1 PUSH1 0x60 DUP8 DUP10 SUB SLT ISZERO PUSH2 0x121 JUMPI PUSH2 0x120 PUSH2 0x95 JUMP JUMPDEST JUMPDEST PUSH1 0x0 DUP8 ADD CALLDATALOAD PUSH8 0xFFFFFFFFFFFFFFFF DUP2 GT ISZERO PUSH2 0x13F JUMPI PUSH2 0x13E PUSH2 0x9A JUMP JUMPDEST JUMPDEST PUSH2 0x14B DUP10 DUP3 DUP11 ADD PUSH2 0xAE JUMP JUMPDEST SWAP7 POP SWAP7 POP POP PUSH1 0x20 DUP8 ADD CALLDATALOAD PUSH8 0xFFFFFFFFFFFFFFFF DUP2 GT ISZERO PUSH2 0x16E JUMPI PUSH2 0x16D PUSH2 0x9A JUMP JUMPDEST JUMPDEST PUSH2 0x17A DUP10 DUP3 DUP11 ADD PUSH2 0xAE JUMP JUMPDEST SWAP5 POP SWAP5 POP POP PUSH1 0x40 DUP8 ADD CALLDATALOAD PUSH8 0xFFFFFFFFFFFFFFFF DUP2 GT ISZERO PUSH2 0x19D JUMPI PUSH2 0x19C PUSH2 0x9A JUMP JUMPDEST JUMPDEST PUSH2 0x1A9 DUP10 DUP3 DUP11 ADD PUSH2 0xAE JUMP JUMPDEST SWAP3 POP SWAP3 POP POP SWAP3 SWAP6 POP SWAP3 SWAP6 POP SWAP3 SWAP6 JUMP JUMPDEST PUSH1 0x0 DUP3 DUP3 MSTORE PUSH1 0x20 DUP3 ADD SWAP1 POP SWAP3 SWAP2 POP POP JUMP JUMPDEST DUP3 DUP2 DUP4 CALLDATACOPY PUSH1 0x0 DUP4 DUP4 ADD MSTORE POP POP POP JUMP JUMPDEST PUSH1 0x0 PUSH1 0x1F NOT PUSH1 0x1F DUP4 ADD AND SWAP1 POP SWAP2 SWAP1 POP JUMP JUMPDEST PUSH1 0x0 PUSH2 0x1F5 DUP4 DUP6 PUSH2 0x1B8 JUMP JUMPDEST SWAP4 POP PUSH2 0x202 DUP4 DUP6 DUP5 PUSH2 0x1C9 JUMP JUMPDEST PUSH2 0x20B DUP4 PUSH2 0x1D8 JUMP JUMPDEST DUP5 ADD SWAP1 POP SWAP4 SWAP3 POP POP POP JUMP JUMPDEST PUSH1 0x0 PUSH1 0x60 DUP3 ADD SWAP1 POP DUP2 DUP2 SUB PUSH1 0x0 DUP4 ADD MSTORE PUSH2 0x231 DUP2 DUP9 DUP11 PUSH2 0x1E9 JUMP JUMPDEST SWAP1 POP DUP2 DUP2 SUB PUSH1 0x20 DUP4 ADD MSTORE PUSH2 0x246 DUP2 DUP7 DUP9 PUSH2 0x1E9 JUMP JUMPDEST SWAP1 POP DUP2 DUP2 SUB PUSH1 0x40 DUP4 ADD MSTORE PUSH2 0x25B DUP2 DUP5 DUP7 PUSH2 0x1E9 JUMP JUMPDEST SWAP1 POP SWAP8 SWAP7 POP POP POP POP POP POP POP JUMP INVALID LOG2 PUSH5 0x6970667358 0x22 SLT KECCAK256 DUP2 0xCC PUSH12 0xE4E073BA54966840C9BD4D0F NUMBER SDIV 0x1F 0xCA 0xA6 0x27 0x21 DUP6 XOR CALLCODE 0xE EXP XOR KECCAK256 0xBF PUSH4 0xAA64736F PUSH13 0x63430008140033000000000000 "},"methodIdentifiers":{"recordRDF(string,string,string)":"29895224"}}}}}