{
  "_format": "hh-sol-artifact-1",
  "contractName": "TokenBurner",
  "sourceName": "smart-contracts/contracts/TokenBurner.sol",
  "abi": [
    {
      "anonymous": false,
      "inputs": [
        {
          "indexed": true,
          "internalType": "address",
          "name": "user",
          "type": "address"
        },
        {
          "indexed": true,
          "internalType": "address",
          "name": "token",
          "type": "address"
        },
        {
          "indexed": false,
          "internalType": "uint256",
          "name": "amount",
          "type": "uint256"
        }
      ],
      "name": "TokensBurned",
      "type": "event"
    },
    {
      "inputs": [
        {
          "internalType": "address",
          "name": "tokenAddress",
          "type": "address"
        },
        {
          "internalType": "uint256",
          "name": "amount",
          "type": "uint256"
        }
      ],
      "name": "burnTokens",
      "outputs": [],
      "stateMutability": "nonpayable",
      "type": "function"
    }
  ],
  "bytecode": "0x608060405234801561001057600080fd5b50610492806100206000396000f3fe608060405234801561001057600080fd5b506004361061002b5760003560e01c80630d1118ce14610030575b600080fd5b61004a6004803603810190610045919061025e565b61004c565b005b6000811161008f576040517f08c379a0000000000000000000000000000000000000000000000000000000008152600401610086906102fb565b60405180910390fd5b600082905060008173ffffffffffffffffffffffffffffffffffffffff166323b872dd3361dead866040518463ffffffff1660e01b81526004016100d593929190610339565b6020604051808303816000875af11580156100f4573d6000803e3d6000fd5b505050506040513d601f19601f8201168201806040525081019061011891906103a8565b90508061015a576040517f08c379a000000000000000000000000000000000000000000000000000000000815260040161015190610421565b60405180910390fd5b8373ffffffffffffffffffffffffffffffffffffffff163373ffffffffffffffffffffffffffffffffffffffff167f857ac1c9e97cc66ecae5f524c9c611463ae748b85af3ca454a5ec4d7d341924d856040516101b79190610441565b60405180910390a350505050565b600080fd5b600073ffffffffffffffffffffffffffffffffffffffff82169050919050565b60006101f5826101ca565b9050919050565b610205816101ea565b811461021057600080fd5b50565b600081359050610222816101fc565b92915050565b6000819050919050565b61023b81610228565b811461024657600080fd5b50565b60008135905061025881610232565b92915050565b60008060408385031215610275576102746101c5565b5b600061028385828601610213565b925050602061029485828601610249565b9150509250929050565b600082825260208201905092915050565b7f43616e6e6f74206275726e207a65726f00000000000000000000000000000000600082015250565b60006102e560108361029e565b91506102f0826102af565b602082019050919050565b60006020820190508181036000830152610314816102d8565b9050919050565b610324816101ea565b82525050565b61033381610228565b82525050565b600060608201905061034e600083018661031b565b61035b602083018561031b565b610368604083018461032a565b949350505050565b60008115159050919050565b61038581610370565b811461039057600080fd5b50565b6000815190506103a28161037c565b92915050565b6000602082840312156103be576103bd6101c5565b5b60006103cc84828501610393565b91505092915050565b7f5472616e73666572206661696c65640000000000000000000000000000000000600082015250565b600061040b600f8361029e565b9150610416826103d5565b602082019050919050565b6000602082019050818103600083015261043a816103fe565b9050919050565b6000602082019050610456600083018461032a565b9291505056fea2646970667358221220771a345b3b304a301fef0bf4facd872c08b7fc3de59cb6735b4c39ec0729516c64736f6c63430008140033",
  "linkReferences": {},
  "deployedLinkReferences": {}
}