{
  "_format": "hh-sol-artifact-1",
  "contractName": "GraphSync",
  "sourceName": "smart-contracts/contracts/GraphSync.sol",
  "abi": [
    {
      "anonymous": false,
      "inputs": [
        {
          "indexed": false,
          "internalType": "string",
          "name": "subject",
          "type": "string"
        },
        {
          "indexed": false,
          "internalType": "string",
          "name": "predicate",
          "type": "string"
        },
        {
          "indexed": false,
          "internalType": "string",
          "name": "obj",
          "type": "string"
        }
      ],
      "name": "LogRDF",
      "type": "event"
    },
    {
      "inputs": [
        {
          "internalType": "string",
          "name": "subject",
          "type": "string"
        },
        {
          "internalType": "string",
          "name": "predicate",
          "type": "string"
        },
        {
          "internalType": "string",
          "name": "obj",
          "type": "string"
        }
      ],
      "name": "recordRDF",
      "outputs": [],
      "stateMutability": "nonpayable",
      "type": "function"
    }
  ],
  "bytecode": "0x608060405234801561001057600080fd5b5061029e806100206000396000f3fe608060405234801561001057600080fd5b506004361061002b5760003560e01c80632989522414610030575b600080fd5b61004a60048036038101906100459190610104565b61004c565b005b7fa0b2c614d8f6526f4d977ecf5bce9d351e822c0c894d3eebaa4256af4410b06a86868686868660405161008596959493929190610216565b60405180910390a1505050505050565b600080fd5b600080fd5b600080fd5b600080fd5b600080fd5b60008083601f8401126100c4576100c361009f565b5b8235905067ffffffffffffffff8111156100e1576100e06100a4565b5b6020830191508360018202830111156100fd576100fc6100a9565b5b9250929050565b6000806000806000806060878903121561012157610120610095565b5b600087013567ffffffffffffffff81111561013f5761013e61009a565b5b61014b89828a016100ae565b9650965050602087013567ffffffffffffffff81111561016e5761016d61009a565b5b61017a89828a016100ae565b9450945050604087013567ffffffffffffffff81111561019d5761019c61009a565b5b6101a989828a016100ae565b92509250509295509295509295565b600082825260208201905092915050565b82818337600083830152505050565b6000601f19601f8301169050919050565b60006101f583856101b8565b93506102028385846101c9565b61020b836101d8565b840190509392505050565b6000606082019050818103600083015261023181888a6101e9565b905081810360208301526102468186886101e9565b9050818103604083015261025b8184866101e9565b905097965050505050505056fea264697066735822122081cc6be4e073ba54966840c9bd4d0f43051fcaa627218518f20e0a1820bf63aa64736f6c63430008140033",
  "linkReferences": {},
  "deployedLinkReferences": {}
}