{
  "_format": "hh-sol-artifact-1",
  "contractName": "EXETaskManager",
  "sourceName": "smart-contracts/contracts/EXETaskManager.sol",
  "abi": [
    {
      "inputs": [
        {
          "internalType": "address",
          "name": "tokenAddress",
          "type": "address"
        }
      ],
      "stateMutability": "nonpayable",
      "type": "constructor"
    },
    {
      "anonymous": false,
      "inputs": [
        {
          "indexed": true,
          "internalType": "uint256",
          "name": "taskId",
          "type": "uint256"
        },
        {
          "indexed": false,
          "internalType": "string",
          "name": "rdfData",
          "type": "string"
        }
      ],
      "name": "TaskCompleted",
      "type": "event"
    },
    {
      "anonymous": false,
      "inputs": [
        {
          "indexed": true,
          "internalType": "uint256",
          "name": "taskId",
          "type": "uint256"
        },
        {
          "indexed": true,
          "internalType": "address",
          "name": "performer",
          "type": "address"
        },
        {
          "indexed": false,
          "internalType": "uint256",
          "name": "price",
          "type": "uint256"
        },
        {
          "indexed": false,
          "internalType": "string",
          "name": "rdfData",
          "type": "string"
        }
      ],
      "name": "TaskCreated",
      "type": "event"
    },
    {
      "inputs": [
        {
          "internalType": "uint256",
          "name": "taskId",
          "type": "uint256"
        },
        {
          "internalType": "string",
          "name": "rdfData",
          "type": "string"
        }
      ],
      "name": "completeTask",
      "outputs": [],
      "stateMutability": "nonpayable",
      "type": "function"
    },
    {
      "inputs": [
        {
          "internalType": "address",
          "name": "performer",
          "type": "address"
        },
        {
          "internalType": "uint256",
          "name": "price",
          "type": "uint256"
        },
        {
          "internalType": "string",
          "name": "rdfData",
          "type": "string"
        }
      ],
      "name": "createTask",
      "outputs": [
        {
          "internalType": "uint256",
          "name": "",
          "type": "uint256"
        }
      ],
      "stateMutability": "nonpayable",
      "type": "function"
    },
    {
      "inputs": [],
      "name": "taskCounter",
      "outputs": [
        {
          "internalType": "uint256",
          "name": "",
          "type": "uint256"
        }
      ],
      "stateMutability": "view",
      "type": "function"
    },
    {
      "inputs": [
        {
          "internalType": "uint256",
          "name": "",
          "type": "uint256"
        }
      ],
      "name": "tasks",
      "outputs": [
        {
          "internalType": "address",
          "name": "creator",
          "type": "address"
        },
        {
          "internalType": "address",
          "name": "performer",
          "type": "address"
        },
        {
          "internalType": "uint256",
          "name": "price",
          "type": "uint256"
        },
        {
          "internalType": "bool",
          "name": "isCompleted",
          "type": "bool"
        }
      ],
      "stateMutability": "view",
      "type": "function"
    },
    {
      "inputs": [],
      "name": "token",
      "outputs": [
        {
          "internalType": "contract IERC20",
          "name": "",
          "type": "address"
        }
      ],
      "stateMutability": "view",
      "type": "function"
    }
  ],
  "bytecode": "0x608060405234801561001057600080fd5b50604051610d47380380610d47833981810160405281019061003291906100db565b806000806101000a81548173ffffffffffffffffffffffffffffffffffffffff021916908373ffffffffffffffffffffffffffffffffffffffff16021790555050610108565b600080fd5b600073ffffffffffffffffffffffffffffffffffffffff82169050919050565b60006100a88261007d565b9050919050565b6100b88161009d565b81146100c357600080fd5b50565b6000815190506100d5816100af565b92915050565b6000602082840312156100f1576100f0610078565b5b60006100ff848285016100c6565b91505092915050565b610c30806101176000396000f3fe608060405234801561001057600080fd5b50600436106100575760003560e01c8063586717301461005c57806373db06a11461007a57806374aaa760146100aa5780638d977672146100c6578063fc0c546a146100f9575b600080fd5b610064610117565b60405161007191906105fd565b60405180910390f35b610094600480360381019061008f9190610711565b61011d565b6040516100a191906105fd565b60405180910390f35b6100c460048036038101906100bf9190610785565b6102b9565b005b6100e060048036038101906100db91906107e5565b610543565b6040516100f0949392919061083c565b60405180910390f35b6101016105c0565b60405161010e91906108e0565b60405180910390f35b60015481565b6000600160008154809291906101329061092a565b919050555060405180608001604052803373ffffffffffffffffffffffffffffffffffffffff1681526020018673ffffffffffffffffffffffffffffffffffffffff1681526020018581526020016000151581525060026000600154815260200190815260200160002060008201518160000160006101000a81548173ffffffffffffffffffffffffffffffffffffffff021916908373ffffffffffffffffffffffffffffffffffffffff16021790555060208201518160010160006101000a81548173ffffffffffffffffffffffffffffffffffffffff021916908373ffffffffffffffffffffffffffffffffffffffff1602179055506040820151816002015560608201518160030160006101000a81548160ff0219169083151502179055509050508473ffffffffffffffffffffffffffffffffffffffff166001547fedce45cc3fc2bea98c94b72104f4a750dcc91bd183a01870ed4f93a365eba5b98686866040516102a4939291906109d0565b60405180910390a36001549050949350505050565b60006002600085815260200190815260200160002090508060030160009054906101000a900460ff1615610322576040517f08c379a000000000000000000000000000000000000000000000000000000000815260040161031990610a4e565b60405180910390fd5b8060010160009054906101000a900473ffffffffffffffffffffffffffffffffffffffff1673ffffffffffffffffffffffffffffffffffffffff163373ffffffffffffffffffffffffffffffffffffffff16146103b4576040517f08c379a00000000000000000000000000000000000000000000000000000000081526004016103ab90610aba565b60405180910390fd5b60018160030160006101000a81548160ff02191690831515021790555060008060009054906101000a900473ffffffffffffffffffffffffffffffffffffffff1673ffffffffffffffffffffffffffffffffffffffff166323b872dd8360000160009054906101000a900473ffffffffffffffffffffffffffffffffffffffff168460010160009054906101000a900473ffffffffffffffffffffffffffffffffffffffff1685600201546040518463ffffffff1660e01b815260040161047d93929190610ada565b6020604051808303816000875af115801561049c573d6000803e3d6000fd5b505050506040513d601f19601f820116820180604052508101906104c09190610b3d565b905080610502576040517f08c379a00000000000000000000000000000000000000000000000000000000081526004016104f990610bb6565b60405180910390fd5b847f7e6ffc29fe63759579d96a0457a8f2e08339aca345bd469f59dc2e61f82a5aeb8585604051610534929190610bd6565b60405180910390a25050505050565b60026020528060005260406000206000915090508060000160009054906101000a900473ffffffffffffffffffffffffffffffffffffffff16908060010160009054906101000a900473ffffffffffffffffffffffffffffffffffffffff16908060020154908060030160009054906101000a900460ff16905084565b60008054906101000a900473ffffffffffffffffffffffffffffffffffffffff1681565b6000819050919050565b6105f7816105e4565b82525050565b600060208201905061061260008301846105ee565b92915050565b600080fd5b600080fd5b600073ffffffffffffffffffffffffffffffffffffffff82169050919050565b600061064d82610622565b9050919050565b61065d81610642565b811461066857600080fd5b50565b60008135905061067a81610654565b92915050565b610689816105e4565b811461069457600080fd5b50565b6000813590506106a681610680565b92915050565b600080fd5b600080fd5b600080fd5b60008083601f8401126106d1576106d06106ac565b5b8235905067ffffffffffffffff8111156106ee576106ed6106b1565b5b60208301915083600182028301111561070a576107096106b6565b5b9250929050565b6000806000806060858703121561072b5761072a610618565b5b60006107398782880161066b565b945050602061074a87828801610697565b935050604085013567ffffffffffffffff81111561076b5761076a61061d565b5b610777878288016106bb565b925092505092959194509250565b60008060006040848603121561079e5761079d610618565b5b60006107ac86828701610697565b935050602084013567ffffffffffffffff8111156107cd576107cc61061d565b5b6107d9868287016106bb565b92509250509250925092565b6000602082840312156107fb576107fa610618565b5b600061080984828501610697565b91505092915050565b61081b81610642565b82525050565b60008115159050919050565b61083681610821565b82525050565b60006080820190506108516000830187610812565b61085e6020830186610812565b61086b60408301856105ee565b610878606083018461082d565b95945050505050565b6000819050919050565b60006108a66108a161089c84610622565b610881565b610622565b9050919050565b60006108b88261088b565b9050919050565b60006108ca826108ad565b9050919050565b6108da816108bf565b82525050565b60006020820190506108f560008301846108d1565b92915050565b7f4e487b7100000000000000000000000000000000000000000000000000000000600052601160045260246000fd5b6000610935826105e4565b91507fffffffffffffffffffffffffffffffffffffffffffffffffffffffffffffffff8203610967576109666108fb565b5b600182019050919050565b600082825260208201905092915050565b82818337600083830152505050565b6000601f19601f8301169050919050565b60006109af8385610972565b93506109bc838584610983565b6109c583610992565b840190509392505050565b60006040820190506109e560008301866105ee565b81810360208301526109f88184866109a3565b9050949350505050565b7f5461736b20616c726561647920636f6d706c6574656400000000000000000000600082015250565b6000610a38601683610972565b9150610a4382610a02565b602082019050919050565b60006020820190508181036000830152610a6781610a2b565b9050919050565b7f4f6e6c7920706572666f726d65722063616e20636f6d706c6574650000000000600082015250565b6000610aa4601b83610972565b9150610aaf82610a6e565b602082019050919050565b60006020820190508181036000830152610ad381610a97565b9050919050565b6000606082019050610aef6000830186610812565b610afc6020830185610812565b610b0960408301846105ee565b949350505050565b610b1a81610821565b8114610b2557600080fd5b50565b600081519050610b3781610b11565b92915050565b600060208284031215610b5357610b52610618565b5b6000610b6184828501610b28565b91505092915050565b7f7472616e7366657246726f6d206661696c656400000000000000000000000000600082015250565b6000610ba0601383610972565b9150610bab82610b6a565b602082019050919050565b60006020820190508181036000830152610bcf81610b93565b9050919050565b60006020820190508181036000830152610bf18184866109a3565b9050939250505056fea264697066735822122002608e25b09958c2c19d58111468f7ee580cf4b18125da883f027e62fd92782364736f6c63430008140033",
  "linkReferences": {},
  "deployedLinkReferences": {}
}