{
  "_format": "hh-sol-artifact-1",
  "contractName": "dAppProxyModule",
  "sourceName": "smart-contracts/contracts/dAppProxyModule.sol",
  "abi": [
    {
      "anonymous": false,
      "inputs": [
        {
          "indexed": true,
          "internalType": "address",
          "name": "dapp",
          "type": "address"
        },
        {
          "indexed": true,
          "internalType": "address",
          "name": "target",
          "type": "address"
        },
        {
          "indexed": false,
          "internalType": "bool",
          "name": "success",
          "type": "bool"
        }
      ],
      "name": "ProxyCall",
      "type": "event"
    },
    {
      "inputs": [
        {
          "internalType": "address",
          "name": "taskManagerAddress",
          "type": "address"
        },
        {
          "internalType": "address",
          "name": "performer",
          "type": "address"
        },
        {
          "internalType": "uint256",
          "name": "price",
          "type": "uint256"
        },
        {
          "internalType": "string",
          "name": "rdfData",
          "type": "string"
        }
      ],
      "name": "proxyCreateTask",
      "outputs": [],
      "stateMutability": "nonpayable",
      "type": "function"
    }
  ],
  "bytecode": "0x608060405234801561001057600080fd5b50610590806100206000396000f3fe608060405234801561001057600080fd5b506004361061002b5760003560e01c8063907fb52014610030575b600080fd5b61004a600480360381019061004591906102ec565b61004c565b005b600060608673ffffffffffffffffffffffffffffffffffffffff166373db06a160e01b8787878760405160240161008694939291906103f0565b604051602081830303815290604052907bffffffffffffffffffffffffffffffffffffffffffffffffffffffff19166020820180517bffffffffffffffffffffffffffffffffffffffffffffffffffffffff83818316178352505050506040516100f091906104a1565b6000604051808303816000865af19150503d806000811461012d576040519150601f19603f3d011682016040523d82523d6000602084013e610132565b606091505b5080925081935050508673ffffffffffffffffffffffffffffffffffffffff163373ffffffffffffffffffffffffffffffffffffffff167ffe285ae8943874343c23761200e8b35cad6ba3bb7aa1de2721af24b2f9dff2148460405161019891906104d3565b60405180910390a3816101e0576040517f08c379a00000000000000000000000000000000000000000000000000000000081526004016101d79061053a565b60405180910390fd5b50505050505050565b600080fd5b600080fd5b600073ffffffffffffffffffffffffffffffffffffffff82169050919050565b600061021e826101f3565b9050919050565b61022e81610213565b811461023957600080fd5b50565b60008135905061024b81610225565b92915050565b6000819050919050565b61026481610251565b811461026f57600080fd5b50565b6000813590506102818161025b565b92915050565b600080fd5b600080fd5b600080fd5b60008083601f8401126102ac576102ab610287565b5b8235905067ffffffffffffffff8111156102c9576102c861028c565b5b6020830191508360018202830111156102e5576102e4610291565b5b9250929050565b600080600080600060808688031215610308576103076101e9565b5b60006103168882890161023c565b95505060206103278882890161023c565b945050604061033888828901610272565b935050606086013567ffffffffffffffff811115610359576103586101ee565b5b61036588828901610296565b92509250509295509295909350565b61037d81610213565b82525050565b61038c81610251565b82525050565b600082825260208201905092915050565b82818337600083830152505050565b6000601f19601f8301169050919050565b60006103cf8385610392565b93506103dc8385846103a3565b6103e5836103b2565b840190509392505050565b60006060820190506104056000830187610374565b6104126020830186610383565b81810360408301526104258184866103c3565b905095945050505050565b600081519050919050565b600081905092915050565b60005b83811015610464578082015181840152602081019050610449565b60008484015250505050565b600061047b82610430565b610485818561043b565b9350610495818560208601610446565b80840191505092915050565b60006104ad8284610470565b915081905092915050565b60008115159050919050565b6104cd816104b8565b82525050565b60006020820190506104e860008301846104c4565b92915050565b7f6372656174655461736b2063616c6c206661696c656400000000000000000000600082015250565b6000610524601683610392565b915061052f826104ee565b602082019050919050565b6000602082019050818103600083015261055381610517565b905091905056fea264697066735822122052205b18a93ed22b71bd05f3c6113ff5e377eb35debf4f4361e177711383d4b764736f6c63430008140033",
  "linkReferences": {},
  "deployedLinkReferences": {}
}