{
  "_format": "hh-sol-artifact-1",
  "contractName": "ZKValidator",
  "sourceName": "smart-contracts/contracts/ZKValidator.sol",
  "abi": [
    {
      "anonymous": false,
      "inputs": [
        {
          "indexed": true,
          "internalType": "address",
          "name": "agent",
          "type": "address"
        },
        {
          "indexed": false,
          "internalType": "bool",
          "name": "success",
          "type": "bool"
        },
        {
          "indexed": false,
          "internalType": "string",
          "name": "details",
          "type": "string"
        }
      ],
      "name": "ProofValidated",
      "type": "event"
    },
    {
      "inputs": [
        {
          "internalType": "bytes",
          "name": "",
          "type": "bytes"
        }
      ],
      "name": "validateProof",
      "outputs": [
        {
          "internalType": "bool",
          "name": "",
          "type": "bool"
        }
      ],
      "stateMutability": "nonpayable",
      "type": "function"
    }
  ],
  "bytecode": "0x608060405234801561001057600080fd5b50610272806100206000396000f3fe608060405234801561001057600080fd5b506004361061002b5760003560e01c8063e3c3335d14610030575b600080fd5b61004a6004803603810190610045919061012e565b610060565b6040516100579190610196565b60405180910390f35b600080600190503373ffffffffffffffffffffffffffffffffffffffff167f801b972f81bfc45dab97466d09b566506ef946777262dcf638d03b54a9a44b9e826040516100ad919061020e565b60405180910390a28091505092915050565b600080fd5b600080fd5b600080fd5b600080fd5b600080fd5b60008083601f8401126100ee576100ed6100c9565b5b8235905067ffffffffffffffff81111561010b5761010a6100ce565b5b602083019150836001820283011115610127576101266100d3565b5b9250929050565b60008060208385031215610145576101446100bf565b5b600083013567ffffffffffffffff811115610163576101626100c4565b5b61016f858286016100d8565b92509250509250929050565b60008115159050919050565b6101908161017b565b82525050565b60006020820190506101ab6000830184610187565b92915050565b600082825260208201905092915050565b7f5a4b2070726f6f6620737475622076616c696461746564000000000000000000600082015250565b60006101f86017836101b1565b9150610203826101c2565b602082019050919050565b60006040820190506102236000830184610187565b8181036020830152610234816101eb565b90509291505056fea2646970667358221220e1e965d73ce66b729ad0b6f21b5af1a610a4a3e356e949dff03e5ef06f2307cd64736f6c63430008140033",
  "linkReferences": {},
  "deployedLinkReferences": {}
}